:020000040800F2
:1000000098050020D50100087F2900085128000824
:100010007D290008BB0300082940000800000000FB
:10002000000000000000000000000000EB390008A4
:10003000BD0300080000000081290008ED39000818
:10004000EF010008EF010008EF010008EF010008D0
:10005000EF010008EF010008EF010008EF010008C0
:10006000EF010008EF010008EF010008EF010008B0
:10007000EF010008EF010008EF010008EF010008A0
:10008000EF010008EF010008EF010008EF01000890
:10009000EF010008EF010008EF010008EF01000880
:1000A000EF010008EF010008EF010008EF01000870
:1000B000EF010008EF010008EF010008EF01000860
:1000C000EF010008EF010008EF010008EF01000850
:1000D000EF0100081D400008EF010008EF010008D3
:1000E000EF010008EF010008EF010008EF01000830
:1000F000EF010008EF010008EF0100080000000018
:10010000EF010008EF010008EF010008EF0100080F
:10011000EF010008EF010008EF010008EF010008FF
:10012000EF010008EF010008EF010008EF010008EF
:10013000EF010008EF010008EF010008EF010008DF
:10014000EF010008EF010008EF010008EF010008CF
:10015000EF010008EF010008EF010008EF010008BF
:10016000EF010008EF010008EF010008EF010008AF
:10017000EF010008EF01000800000000EF01000897
:10018000EF010008EF010008EF010008EF0100088F
:10019000EF010008EF01000800000000000000006F
:1001A0000000000000000000EF010008EF0100085F
:1001B000EF010008EF010008EF010008DFF810D0A0
:1001C00000F080F80048004769400008AFF3008065
:1001D000980500200648804706480047FEE7FEE7EE
:1001E000FEE7FEE7FEE7FEE7FEE7FEE7FEE7FEE7E7
:1001F000853A0008BD0100082DE9F05F05460020A2
:1002000092469B4688460646814640241BE0284687
:1002100041464746224600F044F853465A46C01A23
:10022000914110D311461846224600F02BF82D1AA2
:1002300067EB01084F4622460120002100F022F81A
:1002400017EB00094E41201EA4F10104DFDC4846F3
:1002500031462A46434600F000B830BCBDE8C09F96
:10026000D2B201E000F8012B491EFBD270470022F8
:10027000F6E710B513460A4604461946FFF7F0FFA5
:10028000204610BD202A04DB203A00FA02F10020AB
:1002900070479140C2F1200320FA03F319439040C4
:1002A0007047202A04DB203A21FA02F0002170472F
:1002B00021FA02F3D040C2F12002914008431946CE
:1002C00070470000064C074D06E0E06840F001036F
:1002D00094E8070098471034AC42F6D3FFF772FF5A
:1002E000084100082841000810B5012421460348B0
:1002F00000F0FFF900B10024204610BD000C0048BA
:10030000704700000146014801F0D2BC18000020EF
:1003100010B5044801F0DEFC042801D0012010BD16
:10032000002010BD1800002010B500F015F80128BD
:1003300001D0022010BD074801F040FD040006D1A5
:100340004FF48041034801F01DFB00B10124204619
:1003500010BD00001800002008B501208DF8000035
:10036000FFF7C2FF10B900208DF800009DF80000D3
:1003700008BD000038B50024009313460A46014624
:10038000034801F063FE00B10124204638BD00009F
:10039000180000207047000038B500240093134671
:1003A0000A460146034801F02FFF00B10124204610
:1003B00038BD0000180000207047FEE7704772B695
:1003C000FEE70022AFF3008030B50E4B054601205A
:1003D0005C7A002C14D1587A1C54587A03EB8000B4
:1003E00045605D7A03F108002A54587A421C5A721B
:1003F000303008703A2048702F208870CC70002070
:1004000030BD00008C01002010B590F825100023AD
:10041000022905D00421C16380F82430012010BDD9
:1004200001680A6822F00E020A60816C0A6822F4F0
:1004300080720A6001680A6822F001020A6090F87E
:100440004410046C01F01C01012202FA01F1616008
:10045000D0E913144C60416D31B10C6824F4807400
:100460000C60D0E916144C6080F8252080F8243008
:10047000184610BD10B590F825100024022903D0AD
:100480000421C16301242BE001680A6822F00E02F6
:100490000A6001680A6822F001020A60816C0A6839
:1004A00022F480720A6090F84410036C01F01C0181
:1004B000012202FA01F15960D0E913134B60416D3A
:1004C00031B10B6823F480730B60D0E916134B60D5
:1004D00080F82520002180F82410816B01B1884725
:1004E000204610BD70B5044600F008F90546601CB2
:1004F00002D004480078044400F000F9401BA042F8
:10050000FAD370BD080000202DE9FC4FDFF8B4A13C
:10051000002301250AF1040B03244FF00F0C0BF10B
:10052000040EC7E005FA03F632406FD04F68012F82
:1005300005D0022F03D0112F01D0122F17D1D0F8E0
:1005400008905F0004FA07F829EA08090097D1F833
:100550000C8008FA07F848EA0908C0F808804768DC
:10056000B7430E79C6F300169E403E434660C66808
:100570004FEA430804FA08F7BE4301978F6807FA69
:1005800008F73743C7604E68022E01D0122E13D1F0
:10059000DE0800EB86060096366A5F07FF0E0CFA4F
:1005A00007F926EA0906D1F8109009FA07F949EA8D
:1005B0000609009EC6F820900668019FBE430F7989
:1005C00007F0030707FA08F7374307604E68F6009D
:1005D0006FD53D4E376E47F001073766366E23F014
:1005E000030706F001060096384E3E44B146B66851
:1005F0009F074FEA17780CFA08F7BE43B0F1904F07
:1006000005D0334FB84204D1012721E051E0002743
:100610001EE0304FB84201D1022719E02E4FB842F8
:1006200001D1032714E02D4FB84201D104270FE078
:100630002B4FB84201D105270AE02A4FB84201D119
:10064000062705E0284FB84201D1072700E0082718
:1006500007FA08F73743C9F80870DAF80060574618
:10066000D1F8048096435FEAC83800D516433E604F
:10067000DBF800605F46D1F8048096435FEA883873
:1006800000D516433E60DEF800607746D1F804805E
:1006900096435FEAC82800D516433E60094F0C37E1
:1006A0003E68D1F8048096435FEA882800D5164357
:1006B0003E605B1C0A6832FA03F67FF433AF00F049
:1006C00015B8000000040140001002400000014085
:1006D0000004004800080048000C004800100048D2
:1006E0000014004800180048001C00481CBCBDE86D
:1006F000E08F0069084000D0012070470148806801
:100700007047000008000020024881680278114408
:10071000816070470800002010B50024032000F01D
:1007200071F8002000F008F808B1012401E000F0A1
:1007300025F8204610BD000070B50E4E0546002479
:10074000307898B14FF47A71B1FBF0F00A4909683A
:10075000B1FBF0F001F039FE40B9102D06D20022B5
:100760002946501E00F02EF8756000E00124204656
:1007700070BD00000800002014000020094808B5E2
:10078000016E41F001010166016E01F0010100916D
:10079000816D41F080518165806D00F08050009046
:1007A00008BD000000100240002809DB00F01F0215
:1007B000012191404009800000F1E020C0F80011C3
:1007C00070470000F0B40E4B1B680C46C3F30223C5
:1007D000C3F10705042D00D90425191D072901D2ED
:1007E000002300E0DB1E012606FA05F1491E214028
:1007F00099409E40761E16403143F0BC03F015BC74
:100800000CED00E0064900F0070208684FF6FF0310
:10081000184040EA0220034A104308607047000075
:100820000CED00E00000FA052B492C4B0A68322140
:100830004A432B4940B1B0F5007F086829D020F425
:10084000C06040F480602CE00868C0F341200228BA
:1008500004D051F8800F20F4807022E0D1F880009D
:1008600020F48070C1F88000086820F4C06040F473
:1008700000700860B2FBF3F0401C00E0401E4A69C3
:10088000520501D50028F9D1486940050AD5032051
:100890007047C0F34120022806D051F8800F40F481
:1008A0008070086000207047D1F8800040F48070AC
:1008B000C1F88000086820F4C06040F4007008604F
:1008C000B2FBF3F0401C00E0401E4A695205DBD544
:1008D0000028F9D1D8E700001400002040420F00A2
:1008E0000070004008480168C1F34121022906D088
:1008F000D0F88000C00505D54FF4007070474FF464
:100900008060704700207047007000402DE9F05F64
:1009100003460020FD4A4FF480794FF4007A4FF4EB
:1009200000464FF4FA47B3F5003F0DD0D168F024EC
:1009300001F00301F64DDFF8DC83012920D0022904
:1009400030D0032938D132E0D2F8901001F4407150
:1009500049450AD051450DD0B1F5407F03D111680A
:10096000890300D5EC4800F0E8B9D2F89010EDE02A
:100970003046F8E7D2F894108907F4D53846F2E704
:100980001168890718D51168090703D5116801F0A6
:10099000F00103E0D2F8941004EA1111090955F8A6
:1009A00021100AE01168490506D5414605E01168A5
:1009B000890301D5D94900E000214FF4006C4FF4C0
:1009C000805E4FF4801BB3F5806F73D03DDC202B2D
:1009D00071D023DC042B6FD00FDC012B6DD0022BE8
:1009E000C1D1D2F8881011F00C0167D004294CD085
:1009F00008297AD00C29B6D1B7E7082B76D0102B6E
:100A0000B1D1D2F8881011F44071EED04945EED042
:100A10005145EED0B1F5407FA5D1A6E7402B6ED071
:100A2000802B6DD04B456CD053459CD1D2F88810AB
:100A300011F4402142D0B1F5802F9BD0B1F5002FA9
:100A400053D0B1F5402F8ED18FE7B54E4FF0806770
:100A50004FF000694FF0406AB3F5802F72D015DC7B
:100A6000B3F5005F6ED005DC634528D0734586D1B1
:100A7000704625E0B3F5804F7ED0B3F5803FAFD10F
:100A8000D2F89C0010F0040F77D052E1B3F5002F9C
:100A900060D05B4572D04FF40017BB426FD0B3F10A
:100AA000807F9DD1D2F89C3013F4401368D05B4511
:100AB00067D10FE012E1A4E08BE07EE003E1604645
:100AC00000F03EB901F05EBFBB4272D04B456FD023
:100AD000534585D1116889077FF54BAF1068000732
:100AE00005D5106800F0F00005E0D4E07DE0D2F814
:100AF000940004EA1010000955F8200033E7C0E024
:100B0000CAE0D4E0D368DB02F8D5D068C0F3062091
:100B10004143D068C0F30310401CB1FBF0F0D16832
:100B20000DE01369DB02E9D51069C0F306204143EB
:100B30001069C0F30310401CB1FBF0F01169C1F360
:100B400041518AE02DE000BFD2F8981089073FF5A7
:100B50000FAF08E7D2F89C305B0422D513689B01E5
:100B6000CCD5D368DB03C9D5D068C0F30620414398
:100B7000D068C0F3031005E051E073E0A4E075E035
:100B800057E0CFE0401CB1FBF0F1D068C00E05D1BA
:100B9000D068800301D5112000E00720B1FBF0F000
:100BA000E1E6D2F8883013F04063CDD08CE700E066
:100BB000BAE013681B01B4D4D5E6D2F8881011F05E
:100BC00003014FD0012934D0022964D0032995D1E3
:100BD000CBE6D2F8881011F0300174D0102928D05B
:100BE000202958D0302989D1BFE6D2F8881011F0D9
:100BF000C00168D040291CD080294CD0C029A8D180
:100C0000B3E6D2F8881011F4406176D0B1F5806F68
:100C10000FD0614575D0B1F5406F9AD1A5E6D2F8F5
:100C2000883003F04053B3F1805F03D0B3F1405FED
:100C30008FD17EE013681B018BD51369DB0188D54A
:100C40001069C0F3062041431069C0F30310401C33
:100C5000B1FBF0F01169C1F34161491C4900B0FBDF
:100C6000F1F080E600F071B800F062BBD2F89C3081
:100C700013F018033FF423AF082B42D0102B8FD171
:100C800028E7D2F8881011F4405136D0714550D081
:100C9000B1F5005F84D134E0D2F8881011F44041FE
:100CA0002BD0B1F5804F44D0B14285D129E0D2F8A4
:100CB000881011F4403120D0B1F5803F39D0B1F522
:100CC000003FCED11DE018E0D2F89C1011F00301D6
:100CD00013D001292DD00229C3D112E0D2F88810F7
:100CE00011F4401109D059453FF444AEB1F5001F4D
:100CF00007D0B1F5401FB4D137E600F02BB800F0B3
:100D000005BB11684905ACD540462CE600100240F1
:100D1000D04000080024F400B0710B0000366E01D2
:100D2000006CDC02BB429CD113689B013FF5EAAE2C
:100D300019E600F014B800F00DBB30BCBDE8C09F50
:100D400030BCBDE8C05FFFF7BDBE30BCBDE8C05FD2
:100D5000FFF78ABF30BCBDE8C05FFFF7D0BF30BC33
:100D6000BDE8C05FFFF7E7BF2DE9F84F0446002755
:100D700000883E46010504F12008FE4D1ED5E06EB8
:100D800040280AD003DC68B1202804D10FE0602895
:100D900021D080281FD001270FE0E86840F4803080
:100DA000E86018E00021201D01F072FE03E0002140
:100DB000404601F001FF07000DD03E462088C004E8
:100DC0002BD5206FB0F5007F16D00DDCC8B1B0F583
:100DD000807F0FD11AE0D5F89C00E16E20F0E00092
:100DE0000843C5F89C00E9E7B0F5407F13D0B0F5A3
:100DF000806F10D001270FE0E86840F48030E86091
:100E000009E00021201D01F043FE03E000214046DF
:100E100001F0D2FE0746F7B13E46206880033AD57E
:100E2000A86D4FF00008C00009D4A86D40F08050B4
:100E3000A865A86D4FF0010800F080500090DFF821
:100E400038A3DAF8001041F48071CAF80010FFF7F7
:100E500055FC814610E0D5F89C00216F20F4E0603D
:100E60000843C5F89C00D8E7FFF748FCA0EB090051
:100E7000022801D9032705E0DAF80000C005F3D500
:100E8000002F7CD04FEA0706B8F1000F03D0A86D01
:100E900020F08050A8652078C00707D0D5F88800DA
:100EA000E16B20F003000843C5F888002078800734
:100EB00007D5D5F88800216C20F00C000843C5F850
:100EC00088002078400707D5D5F88800616C20F0AD
:100ED00030000843C5F888002078000707D5D5F80A
:100EE0008800A16C20F0C0000843C5F88800207875
:100EF000C00607D5D5F88800E16C20F4407008439F
:100F0000C5F888002078800607D5D5F88800216DBF
:100F100020F440600843C5F888002088800507D584
:100F2000D5F88800616E20F440200843C5F8880099
:100F30002088400507D5D5F88800A16E20F4401020
:100F40000843C5F888002078400607D5D5F8880002
:100F5000616D20F440500843C5F8880020780006F1
:100F600007D5D5F88800A16D20F440400843C5F8A6
:100F700088002088C00509D5D5F8880000E027E062
:100F8000E16D20F440300843C5F888002068C002B5
:100F900007D5D5F89C00216E20F003000843C5F862
:100FA0009C0020884FF0006780044FF0806850D587
:100FB000D5F88800616F20F040600843C5F88800CC
:100FC000606FB8423DD1E86840F48010E86040E0CE
:100FD000D5F8900010F4407015D0D4F890108142EC
:100FE00011D0D5F89000D5F8901020F4407041F45D
:100FF0008031C5F89010D5F8901021F48031C5F8F3
:101000009010C5F89000C00711D0FFF777FB074696
:1010100041F2883907E000BFFFF770FBC11B49456B
:1010200001D9032630E7D5F890008007F4D5D5F82C
:101030009000D4F8901020F440700843C5F8900058
:1010400022E7404505D10121201D01F021FD00B11D
:101050000646206800032DD5A06F4FF480418842DA
:10106000D5F89C0004D140F48040C5F89C000BE00A
:1010700020F48040C5F89C00D5F88800A26F20F0CD
:1010800040601043C5F88800A06FB84203D1E868FB
:1010900040F4801004E0884204D1E86840F48030D5
:1010A000E86007E0404505D10121201D01F0F0FC7A
:1010B00000B106462068400317D5D5F88800E16FD7
:1010C00020F040600843C5F88800E06FB84204D1C2
:1010D000E86840F48010E86007E0404505D1012150
:1010E000201D01F0D5FC00B106462088400413D530
:1010F000D5F88800D4F8801020F040500843C5F897
:101100008800D4F88000B0F1805F05D10221201D55
:1011100001F0BEFC00B106462068C00308D5D5F832
:101120009C00D4F8841020F004000843C5F89C000B
:101130002068800208D5D5F89C00D4F8881020F0EB
:1011400018000843C5F89C002068C00110D5D5F8E8
:101150009C0054F88C1F20F440100843C5F89C00F4
:101160002068B0F5001F03D1E86840F48010E86003
:10117000304603E0001002400070004000F000B86C
:1011800018BCBDE8E08F00002DE9F0470E460500D1
:101190004FF000077ED0DFF85C81D8F8000000F047
:1011A0000F00B0420CD2D8F8001021F00F013143EB
:1011B000C8F80010D8F8000000F00F00B04271D15C
:1011C00028784D4CC0074BD06868DFF83091032871
:1011D0001ED002282ED0002820682ED040050028DE
:1011E00060DA00F0B7F8484506D9A06820F0F000B2
:1011F00040F08000A0608027A068696820F00300AC
:101200000843A060FFF77AFA814641F2883A20E06D
:101210002068800146D501F063FD4845ECD9A068FF
:1012200010F0F00FE1D028788007E5D5A8680028F5
:10123000DBD0E1E720688003D1E78007CFE700BF7C
:10124000FFF75CFAA0EB0901514502D90320BDE884
:10125000F087A068696800F00C00B0EB810FEFD157
:101260002878800705D5A068A96820F0F000084319
:1012700004E0802F03D1A06820F0F000A060D8F82F
:101280000010404601F00F01B1420DD9016821F074
:101290000F0100E006E031430160006800F00F003C
:1012A000B04201D00120D2E72878400705D5A068D8
:1012B000E96820F4E0600843A0602878000706D5BC
:1012C000A068296920F4605040EAC100A06000F0E5
:1012D00041F8A1680A4AC1F30311515C01F01F01F2
:1012E000C8400849086008480068BDE8F047FFF7B3
:1012F00023BA0000002002400010024000B4C404E1
:10130000C0400008140000200C00002005480649D9
:1013100000688968054AC1F30221515C01F01F0190
:10132000C84070471400002000100240004100082F
:101330000548064900688968054AC1F3C221515C25
:1013400001F01F01C8407047140000200010024047
:101350000041000870B52449002318468A68CC680B
:1013600012F00C0204F00306204C214D09D00C2A87
:1013700005D0042A32D0082A00D1284670BD012E9B
:1013800010D10B681B0704D4D1F89430C3F30323A6
:1013900002E00B68C3F30313164E56F82330DAB19C
:1013A0000C2AEBD1C86800F00300022818D00328EB
:1013B00018D01846CA68CB68C2F30312C3F30623D9
:1013C0004343521CB3FBF2F2C868C0F34160401CB7
:1013D0004000B2FBF0F070BD184670BD204670BDF5
:1013E0002046E7E72846E5E7001002400024F40025
:1013F00000366E01D04000082DE9F84304006FD09C
:10140000FA4DA86800F00C06E86800F003072078A1
:10141000C00664D576B10C2E01D1012F0AD0A06987
:10142000002828687AD040F001002860FFF766F9AC
:1014300080465DE02868800702D5A0690028DED0DC
:10144000216A2868000703D5286800F0F00004E04E
:10145000D5F89400F02202EA1010814216D908460D
:1014600001F078FC00283BD1286840F00800286093
:101470002868216A20F0F000084328606868E16964
:1014800020F47F4040EA0120686016E0286840F0C0
:10149000080028602868216A20F0F00008432860CE
:1014A0006868E16920F47F4040EA0120686026B95D
:1014B000206A01F04FFC0028D5D1FFF74BFFA96847
:1014C000CB4AC1F30311515C01F01F01C840C94967
:1014D0000860C9480068FFF72FF900287ED12EE088
:1014E000CAE000BFFFF70AF9A0EB0800022876D88F
:1014F00028688007F6D5286840F00800286028682A
:10150000216A20F0F000084328606868E16920F44F
:101510007F4040EA0120686011E0FFE720F0010011
:101520002860FFF7EBF8804606E000BFFFF7E6F81B
:10153000A0EB08000228DAD828688007F6D42078C3
:10154000C00740D0082E18D00C2E01D1032F14D084
:101550006068B0F5803F17D0B0F5A02F286817D08D
:1015600020F480302860286820F48020286060689B
:10157000E0B1FFF7C3F8804614E02868800322D565
:101580006068002878D01EE0286840F48030EDE7DD
:1015900040F480202860F7E7FFF7B0F8A0EB0800E0
:1015A0006428A4D828688003F6D50CE0FFF7A6F8D5
:1015B000804605E0FFF7A2F8A0EB0800642896D863
:1015C00028688003F6D4207880073BD5042E11D0FC
:1015D0000C2E01D1022F0DD0E06801E0BAE1FFE04E
:1015E000002828681ED040F480702860FFF786F835
:1015F00007460CE0286840050CD5E0680028C1D0FB
:1016000008E000BFFFF77AF8C01B022893D82868CB
:101610004005F7D56868217C20F0FE4040EA016073
:1016200068600FE020F480702860FFF767F80746D5
:1016300005E000BFFFF762F8C01B0228B1D8286898
:101640004005F7D42078000729D560690028D5F82F
:10165000940012D040F00100C5F89400FFF74EF856
:10166000074604E0FFF74AF8C01B022899D8D5F8CE
:1016700094008007F6D512E02BE120F00100C5F8B8
:101680009400FFF73BF8074605E000BFFFF736F888
:10169000C01B022885D8D5F894008007F6D420789E
:1016A000400766D5A86D0027C00008D4A86D40F09B
:1016B0008050A865A86D012700F0805000904F4829
:1016C0000168C90512D40168814641F48071016046
:1016D000FFF714F8804605E0FFF710F8A0EB0800CC
:1016E00002287DD8D9F80000C005F5D5A0680128EA
:1016F00016D00528D5F8900017D020F00100C5F8C5
:101700009000D5F8900020F0040000BFC5F89000CC
:10171000A06841F28839C0B1FEF7F0FF80460FE0C3
:10172000D5F8900040F00100F0E740F00400C5F863
:101730009000F5E7FEF7E2FFA0EB080149454FD81E
:10174000D5F890008007F5D50EE0FEF7D7FF80466C
:1017500006E000BFFEF7D2FFA0EB080149453FD8E5
:10176000D5F890008007F5D41FB1A86D20F0805007
:10177000A8652078800628D5606A0028D5F89800EA
:1017800012D040F00100C5F89800FEF7B7FF0746F9
:1017900005E000BFFEF7B2FFC01B022820D8D5F835
:1017A00098008007F6D510E020F00100C5F89800F9
:1017B000FEF7A4FF074604E0FEF7A0FFC01B0228C7
:1017C0000ED8D5F898008007F6D4A06AF0B30228A6
:1017D00016D00C2E7DD0286820F08070286000E0A4
:1017E000B7E0286810F0205F74D0A4E00010024039
:1017F000C0400008140000200C00002000700040D1
:10180000E868E26A00F00301914228D1216B00F000
:10181000F00209011039914221D1626B00F4FE41BE
:10182000B1EB022F1BD194F8382000F07841B1EBD6
:10183000C26F14D1A18F00F4C00249084905A1F577
:10184000001191420BD194F8401000E06EE049087D
:10185000490600F0C060A1F1007181424FD00C2E0A
:101860007FD0286840017CD42868C00079D42868DB
:1018700020F080702860FEF741FF064605E000BFBB
:10188000FEF73CFF801B022863D828688001F7D44C
:10189000F4E90B016FF00F0202EB01110843218AFA
:1018A0005204490802EB4151A26841EA022108436F
:1018B000217D4FF07E42490802EB41610843217BC4
:1018C00040EAC160E968284A11400843E860286896
:1018D00001E046E02BE040F080702860E86840F0CE
:1018E0008070E860FEF70AFF044604E0FEF706FF9A
:1018F000001B02282DD828688001F7D52FE0286822
:1019000080012CD4286840F080702860E86840F09E
:101910008070E860FEF7F2FE044604E0FEF7EEFE9B
:10192000001B022815D828688001F7D517E0E86861
:1019300020F00300E860E8680C490840E860FEF722
:10194000DDFE044608E000BFFEF7D8FE001B0228BB
:1019500002D90320BDE8F88328688001F4D4002070
:10196000F8E70120F6E700000C809D01FFFFEEFE86
:101970007047704770477047704710B5FEF7C0FC5E
:1019800010BD00002DE9FE4F0446002703200E463F
:1019900084F83400E06B03285AD0B6F5004F57D0D6
:1019A00000254FF400684FF08069B6F5804F04D0F1
:1019B00006B3A06B40F000603FE000950195002168
:1019C000206801F065FD80011CD46946204601F0C5
:1019D000A9FD70BB019840032DD5B4F8480001045F
:1019E000206801F0F1F920BB022120681DE0A06B06
:1019F000284322E0009501950021206801F048FD70
:101A0000800101D54546F2E76946204601F08AFD8E
:101A100078B90198C0030ED5B4F8480001042068D5
:101A200001F0D2F928B90021206801F017FA002846
:101A3000DDD00546DBE74D46D9E7A063A06BDFF8B4
:101A4000C4A04FF4007B38B12168C1F838A045E04C
:101A5000A06B40F08050F0E74FF40020FEF756FFF7
:101A600078B3294D3346B0FBF5FCD4E90461D4E9E1
:101A700001928C4512D9D4F85CC0DC450ED0BCF57F
:101A8000807F14D04FEA650C09B34FEA4108B0FBE0
:101A9000F8F8E04502D900BFB0FBF5F1A069009667
:101AA000CDE901104946206801F0F6FC17E0DFF8A7
:101AB0005CC039B14FEA4108B0FBF8F8A84503D83B
:101AC000ECE707E0A842E9D9B0FBFCF1E6E76045A6
:101AD000E2D8E3E7A06B40F00060A063012759461D
:101AE000206801F0A2F930B12268C2F838A0A16BD9
:101AF0000143A1630127012084F83400384600F037
:101B000007B80000FF0FE01F80F0FA0200E1F505C2
:101B10001EBCBDE8E08F7047F0B5026E920F0A70F0
:101B2000026EC2F383624A70026EC2F301628A706F
:101B3000026E120CCA70B0F86020120A0A7190F896
:101B400060204A71426E120DCA80426EC2F3034297
:101B50000A72B0F86420C2F3C0324A72B0F864204E
:101B6000C2F380328A72B0F86420C2F34032CA7283
:101B7000B0F86420C2F300320A7300264E73C26BC1
:101B80004FF40075012462B1012A3AD00268474936
:101B90009163816B41F08051816380F83440012072
:101BA000F0BDB0F86420836E9205120D42EA937284
:101BB0000A61826EC2F3C2620A75826EC2F3026269
:101BC0004A75826EC2F342528A75826EC2F38242B5
:101BD000CA75826EC2F3C2320A760A69521CC264A6
:101BE0000B7E03F007039B1C9A40C2640B7A03F040
:101BF0000F0704FA07F303655B0A5A43C0E915258A
:101C00000EE090F86420836E9206920A42EA134234
:101C10000A610A69521C9202C264C0E914528565C5
:101C200030F8682FC2F3803201F8192F0288C2F30E
:101C3000C6124A70027802F07F028A704268D20FA0
:101C4000CA704268C2F341720A714268C2F382628A
:101C50004A714268C2F383528A714268C2F34052A9
:101C6000CA710E724268C2F300424A728288C2F39D
:101C7000C0328A728288C2F38032CA728288C2F30A
:101C800040320A738288C2F300324A738288C2F3F8
:101C900081228A738288C2F30122CA730079C0F359
:101CA000460008744C740020F0BD0000FF0FE01FD8
:101CB000C26B0A60026C4A60426C8A60826CCA60C5
:101CC000C26C0A61026D4A61426D8A61806DC861B1
:101CD0000020704770B50446B0F8480000250104A4
:101CE000206801F0ACF918B1A16B0143A16304E0D5
:101CF0000021206801F0CCFB0546C5F3432070BDF0
:101D00002DE9F04190B00C4605460026694601F0E9
:101D100097FD294F4FF0010840B129688F63A96BE7
:101D20000143A96385F83480012635E00098C0F3AB
:101D3000811020700098C0F34010607000994FF43B
:101D40007F4000EA112242EA11616180019909BADB
:101D50006160029921720299090A61720299C1F3C4
:101D60000351A172029900EA11400399C9B20843D4
:101D7000A0810398C0F38520A0730398C0F30120CD
:101D8000E0730398C0F303102074039800F00F0071
:101D900060740498000EA0744FF40071286801F07C
:101DA00044F828B129688F63A86385F83480012638
:101DB00010B03046BDE8F081FF0FE01FF0B585B0F0
:101DC000040041D094F83400002520BB2577334827
:101DD000C4F880003248C4F884003248C4F888004F
:101DE0003148C4F88C003148C4F890003048C4F839
:101DF00094003048C4F898002F48C4F89C002F483D
:101E0000C4F8A000D4F8A40010B92D48C4F8A40068
:101E1000014620468847032084F83400204600F01D
:101E200051F888B969462046FFF76AFF60B99DF806
:101E300010009DF81110E26B012A08D0E5652046DC
:101E4000E168FFF79FFD58B1012005B0F0BD0843E0
:101E500002D04FF4007001E04FF48070E065EEE7CF
:101E6000FEF74CFC0646012705E000BFFEF746FCE6
:101E7000801B401C0AD02046FFF72CFF0428F5D118
:101E8000A563256384F834700020DEE74FF000403E
:101E9000A06384F8347025630320D6E7FF2100088F
:101EA000F7210008171B00087B19000873190008A8
:101EB00075190008771900087919000871190008C8
:101EC0008D1F00082DE9FE4304464FF000084FF433
:101ED0000020FEF71BFD05004FF0010606D0264846
:101EE000B5FBF0F7A069012806D00AE084F8346059
:101EF0004FF00060A0633BE021680A6842F01002E6
:101F00000A60CDF80080CDE9017043464246414663
:101F1000206801F0C1FA58BB206801F0CDFA38BB47
:101F20007800B5FBF0F01549B1FBF0F0401CFEF76E
:101F3000D9FA204601F0D6FB30B100BF84F83460F6
:101F4000A16B0143A16313E0204601F060FB002870
:101F5000F4D14FF40071206800F067FF002808D02A
:101F6000226807499163A16B0143A16384F834603F
:101F7000012000F007B8000000350C00102101001E
:101F8000FF0FE01F06BCBDE8F88300002DE9F04319
:101F900087B0044614216846FEF769F9264920688F
:101FA000884245D12548C16C41F48001C164C16CAF
:101FB00001F480010591C16C41F00401C164C16C60
:101FC00001F004010591C16C41F00801C164C16CCC
:101FD00001F008010591C16C41F00201C164C06CBF
:101FE000022400F002000590C020002503260827E7
:101FF0008DE8F100DFF8489069464846FEF784FA1C
:102000004FF4F8504FF00C088DE8710169464846CE
:10201000FEF77AFA04208DE8710169460948FEF757
:1020200073FA30028DE8F10069460748FEF76CFA52
:1020300007B0BDE8F0830000002406500010024005
:1020400000080048000C0048000400482DE9F04F4B
:1020500087B09A4616460D460446FEF74FFB06909B
:102060003DB194F83400012807D0A06B40F0005037
:102070000DE0A06B40F0006009E00020A063626DFD
:1020800006EB0A01914204D9A06B40F00070A063F6
:102090008EE0032184F834102168C862E16B0129C5
:1020A00000D076024FF0FF3100914FEA4A210191B2
:1020B000902102910227CDE903708146059069467F
:1020C000206801F07CF82068C16841F04001C160DF
:1020D0004FF00108BAF1010F05D927633146206896
:1020E00000F018FF05E0C4F830803146206800F0A9
:1020F0002BFFDFF8F4B030B12268C2F838B0A16B22
:102100000143A16350E0019E1EE0406B000413D523
:1021100096B10027206801F0D9F905F8010B010AF2
:1021200005F8011B010C05F8021B000E361F7F1C71
:1021300005F8010C082FEDD3FEF7E0FA0699411AD5
:102140001098814221D200B32068416B11F4957F31
:10215000DBD0C16821F04001C1602068416BC90536
:1021600009D5BAF1010F06D9E16B032903D000F0BC
:10217000B3FF0028C0D12068416B09071AD5C0F809
:1021800038B0A06B40F0080025E02168C1F838B0F5
:10219000A06B40F00040A06384F83480C4F8309015
:1021A000032007B000F024B884F83480C4F83090DD
:1021B0000120F6E7416B890705D5C0F838B0A06B60
:1021C00040F0020007E0416B890606D5C0F838B040
:1021D000A06B40F02000A063E6E70449816384F827
:1021E00034800020DDE70000FF0FE01F3A0F0018E9
:1021F00030BCBDE8C08F10B5FEF7CCF810BD10B5EF
:10220000FEF7DAF810BD00002DE9F04F8DB09B46C7
:1022100016460D460446FEF771FA0A903DB194F851
:102220003400012807D0A06B40F000500DE0A06BF7
:1022300040F0006009E00020A063626D06EB0B0136
:10224000914204D9A06B40F00070A06382E00321AA
:1022500084F834102168C862E16B012900D076024D
:102260004FF0FF3104914FEA4B2105919021CDE9C8
:10227000061081460890099004A9206800F09FFF8D
:102280002068C16841F04001C160BBF1010F06D96F
:10229000202020633146206800F05DFF05E010201B
:1022A00020633146206800F070FF5FEA00084FF0BD
:1022B000010A06D0216841488863A06B40EA080003
:1022C00074E0059E26E0406B40041BD5D6B1002784
:1022D00015F8010B009015F8011B361F40EA01208C
:1022E000009015F8021B40EA0140009015F8011C0F
:1022F00040EA016000906946206801F0FDF87F1C0B
:10230000082FE5D3FEF7FAF90A99411A1698814287
:1023100024D218B32068416B11F48D7FD3D0C168EB
:1023200021F04001C1602068416BC90523D5BBF194
:10233000010F20D9E16B03291DD000F0CDFED0B1F3
:1023400022681E499163A16B0143A16384F834A004
:10235000C4F8309001200DB000F034B8216817485F
:102360008863A06B40EA0800A06384F834A0C4F836
:1023700030900320EFE72068416B090705D50F492E
:102380008163A06B40F0080010E0416B890705D520
:102390000A498163A06B40F0020007E0416BC90667
:1023A00006D506498163A06B40F01000A063CDE71D
:1023B0000349816384F834A00020CCE7FF0FE01FBD
:1023C0003A0F001830BCBDE8C08F10B5401EB0F108
:1023D000807F01D3012010BD4FF0E02460610F2108
:1023E000601701F022FE0020A0610720206100207C
:1023F00010BD90F88010012918D0012180F88010BC
:102400002421C0F8841050F8641B0A680B6823F07C
:1024100001030B6022F000510022026050F8643C7E
:102420001960202101620277104670470220704730
:102430007047704770B5044690F8800001281DD0A1
:10244000012084F880002420C4F8840020680568F6
:10245000026822F0010202602068826822F0606255
:102460000A438260204601F02BFB20680560202093
:10247000C4F88400002084F8800070BD022070BD84
:1024800070B5044690F8800001281DD0012084F822
:1024900080002420C4F8840020680568026822F0C7
:1024A000010202602068826822F060420A43826072
:1024B000204601F005FB206805602020C4F8840058
:1024C000002084F8800070BD022070BD7047704706
:1024D00070477047704770472DE9F0410368044624
:1024E000D86919689A6840F60F0528424FF0000530
:1024F00009D186067ED501F0200602F080573E43C2
:1025000078D0216FFDE0904E904F16400F4037433A
:1025100070D0C70709D0CF0507D501271F62D4F8AF
:102520008C3043F00103C4F88C3083070AD5D307FD
:1025300008D0276802233B62D4F88C3043F00403B0
:10254000C4F88C3043070AD5D30708D02768042382
:102550003B62D4F88C3043F00203C4F88C3003079C
:102560000CD501F02003334308D0266808233362DA
:10257000D4F88C3043F00803C4F88C3003050BD535
:102580004B0109D526684FF400633362D4F88C30D0
:1025900043F02003C4F88C30D4F88C30002B38D0B2
:1025A000800609D501F0200002F08051084303D0D5
:1025B000216F09B120468847D4F88C0021688968CA
:1025C000490602D410F0280F1DD0204601F038FB38
:1025D00020688168490613D5816821F04001816037
:1025E000E06F68B15A498163E06FFDF743FF00284F
:1025F0000FD000E00FE0E06F816B93E0204691E0A8
:10260000D4F8A010FAE7D4F8A01020468847C4F800
:102610008C50BDE8F081E76E2026012F5ED1C70601
:102620005CD5CF065AD5102018622068816849060B
:102630002FD5E26F116849680904090CE9D0B4F894
:102640005C308B42E5D9A4F85E10116809688906F0
:1026500018D4016821F4807101602068816821F03C
:10266000010181602068816821F040018160C4F827
:102670008860E5662068016821F010010160E06F64
:10268000FDF7C2FEB4F85C00B4F85E10401A81B2E7
:102690001EE0B4F85C10B4F85E20891AB4F85E202D
:1026A00089B2002AB5D00029B3D0026822F4907212
:1026B000026020688268244BDB431A408260C4F8C1
:1026C0008860E56625672068026822F010020260D3
:1026D0002046D4F8BC20BDE8F0411047C70207D51A
:1026E000570205D54FF480101862D4F8B01085E772
:1026F000070609D501F0800702F40002174303D052
:10270000616F0029F3D184E742060ED54A060CD545
:102710001968204621F040011960C4F8846065679B
:10272000D4F89410BDE8F0410847020204D54A00ED
:1027300002D5D4F8B81061E7C001E4D50029E2DA87
:10274000D4F8B4105AE70000010000102001000482
:102750002D3C000810B5040003D0D4F8840010B15B
:1027600010E0012010BD002084F88000204601F018
:1027700083FAD4F8C00010B91548C4F8C000014667
:10278000204688472420C4F884002068016821F08E
:1027900001010160204601F0A1FA0128E2D0A06AFF
:1027A00010B1204601F0AEF92068416821F4904153
:1027B00041602068816821F02A01816020680168F9
:1027C00041F0010101602046BDE8104001F0FEB972
:1027D000D527000810B586B0044614216846FDF7D9
:1027E00046FD17492068884228D11648016E41F4F9
:1027F00080410166016E01F480410591C16C41F098
:102800000101C164C06C694600F0010005904FF4FD
:10281000C0600090022001900020029003200390ED
:10282000072004904FF09040FDF76EFE0022114605
:102830002520FDF7C7FF2520FDF7B6FF06B010BD28
:1028400000380140001002407047704770477047E1
:10285000FEE7000010B504490448FDF7B2FD024947
:10286000491E087010BD00000200002084400008CE
:1028700000B587B014216846FDF7F9FC1948C16C12
:1028800041F08001C164C16C01F080010591C16C0F
:1028900041F00401C164C16C01F004010591C16CF7
:1028A00041F00101C164C16C01F001010591C16CED
:1028B00041F00801C164C16C01F008010591C16CCF
:1028C00041F00201C164C06C694600F0020005904D
:1028D000012000900020019002900348FDF714FEB3
:1028E00007B000BD00100240000C0048084807492E
:1028F0004FF48042016000214160C0E90212016191
:1029000003214161012181617047000000240650CC
:1029100018000020184810B5164901604FF41651F0
:102920004160002181600C22C160C0E90412816114
:10293000C161016241628162FFF70CFF08B1FDF7DE
:102940003EFD00210C48FFF79BFD08B1FDF737FD68
:1029500000210948FFF76EFD08B1FDF730FD06487C
:10296000FFF747FD002803D0BDE81040FDF727BD65
:1029700010BD000000380140C4000020FEE7FEE763
:102980007047000010B5034600203E4C3E4AB3F5A8
:10299000006F03D0B3F5805F08D04AE0D2F89C30D6
:1029A00003F0E003602B08D1204610BDD2F89C3024
:1029B00003F4E063B3F5407FF6D0402B20D0B3F5AD
:1029C000007F1DD083B3802B4FD0B3F5806F4CD0E8
:1029D000202B02D0B3F5807FE7D113689B00E4D5AC
:1029E0005369DB03E1D55069C0F30310401CB1FB10
:1029F000F0F15069C0F306235069C00E3AD014E0DC
:102A000013689B01D1D5D368DB03CED5D068C0F362
:102A10000310401CB1FBF0F1D068C0F30623D0686E
:102A2000C00E02D1D06826E003E05943B1FBF0F0BC
:102A300010BD13681B01FBD51369DB03F8D51069C2
:102A4000C0F30310401CB1FBF0F31069C0F3062182
:102A50001069C00E05D11069800301D5112000E076
:102A600007204B43B3FBF0F010BD11684905FBD5BF
:102A7000064810BD5069800301D51120D5E7072015
:102A8000D3E7000068FF1F00001002400024F4009C
:102A90002DE9F041434C05468846E0680026810751
:102AA000286806D0E16801F0030181420FD170B1BE
:102AB0001AE0012804D0022805D0032807D108E035
:102AC0002168890701E021684905002907DB012603
:102AD00064E02168890302D421684903F5E7E168CD
:102AE00021F003010143E160206820F08060206054
:102AF000FDF704FE074604E0FDF700FEC01B0228B8
:102B000043D820680001F7D46FF00F00B8F1000F30
:102B10001BD0B8F1010F24D0297D4908420502EBF2
:102B20004161AA6841EA02216A6800EB0210014390
:102B300020691D4A104001432161206840F08060F7
:102B40002060FDF7DBFD074621E0A9682A7B09022A
:102B500041EAC2616A6800EB021001432069134A2E
:102B6000E8E7298A124A490802EB4151AA6841EA7A
:102B700002216A6800EB0210014320690D4AD9E77F
:102B8000FDF7BCFDC01B022801D9032606E0206822
:102B90000001F5D52069A969084320613046BDE8E8
:102BA000F0810000001002400F80FFF90F80FF0746
:102BB0000000E0FF0F809FFF2DE9F041434C0546E8
:102BC0008846E06800268107286806D0E16801F0A1
:102BD000030181420FD170B11AE0012804D002280C
:102BE00005D0032807D108E02168890701E02168A2
:102BF0004905002907DB012664E02168890302D426
:102C000021684903F5E7E16821F003010143E16030
:102C1000206820F080502060FDF770FD074604E03A
:102C2000FDF76CFDC01B022843D820688000F7D454
:102C30006FF00F00B8F1000F1BD0B8F1010F24D0D6
:102C4000297D4908420502EB4161AA6841EA022157
:102C50006A6800EB0210014360691D4A104001439D
:102C60006161206840F080502060FDF747FD074615
:102C700021E0A9682A7B090241EAC2616A6800EB87
:102C8000021001436069134AE8E7298A124A490899
:102C900002EB4151AA6841EA02216A6800EB021086
:102CA000014360690D4AD9E7FDF728FDC01B0228E2
:102CB00001D9032606E020688000F5D56069A9697E
:102CC000084360613046BDE8F0810000001002401A
:102CD0000F80FFF90F80FF070000E0FF0F809FFFCC
:102CE00018480021C26802F00302012A0DD10168D0
:102CF000090704D4D0F89410C1F3032102E001685D
:102D0000C1F30311104A52F82110C26802F0030205
:102D1000022A02D0032A03D101E00C4900E00C4949
:102D2000C268C368C2F30312C3F306234B43521CA9
:102D3000B3FBF2F1C068C0F34160401C4000B1FB3E
:102D4000F0F0704700100240D04000080024F4006A
:102D500000366E01F8B51A4D06460024A86DC00075
:102D600002D5FDF7BFFD0DE0A86D40F08050A865CD
:102D7000A86D00F080500090FDF7B4FDA96D21F022
:102D80008051A965B0F5007F03D0802E06D30224C0
:102D900007E0802E05D9A02EF9D801E0702E00D1D1
:102DA00001240848016821F00F01214301600068F7
:102DB00000F00F00A04201D00120F8BD0020F8BDB6
:102DC000001002400020024010B585B004463720B4
:102DD000CDE900104FF480700290002003904FF472
:102DE000805004906946204600F074FB41F288321E
:102DF0003721204600F0F6F905B010BD10B585B0BA
:102E000004462920CDE900104FF480700290002084
:102E100003904FF4805004906946204600F05AFB1E
:102E2000204600F09BFA05B010BD10B585B00446F1
:102E30001020CDE9001000010290002003904FF413
:102E4000805004906946204600F044FB41F28832ED
:102E50001021204600F0C6F905B010BD10B585B0B0
:102E600004460620CDE900104FF480700290002047
:102E700003904FF4805004906946204600F02AFBEE
:102E800041F288320621204600F0ACF905B010BDB1
:102E900030B585B000240546009401944FF480506D
:102EA0000294CDE903406946284600F013FB0B4825
:102EB0004FF4FA510068B0FBF1F041F28831484319
:102EC000401E03D24FF0004005B030BD696B0906CB
:102ED000F6D50348A8632046F6E70000140000205A
:102EE000C500200010B585B004464FF4D5700090A1
:102EF0000820019040010290002003904FF4805080
:102F000004906946204600F0E5FA204600F090FA69
:102F100005B010BD10B585B004461220CDE90010F3
:102F20004FF480700290002003904FF48050049082
:102F30006946204600F0CEFA41F28832122120463E
:102F400000F050F905B010BD10B585B00446112051
:102F5000CDE900104FF480700290002003904FF4F0
:102F6000805004906946204600F0B4FA41F288325D
:102F70001121204600F036F905B010BD10B585B01E
:102F800004460720CDE900204FF480700290002015
:102F900003904FF4805004906946204600F09AFA5E
:102FA00041F288320721204600F01CF905B010BD1F
:102FB00010B585B0044600210220CDE900104FF481
:102FC0004070CDE902014FF48050049069462046DC
:102FD00000F080FA204600F097F905B010BD10B55A
:102FE00085B004460920CDE900104FF440700290EE
:102FF000002003904FF4805004906946204600F072
:1030000069FA204600F080F905B010BD10B585B012
:10301000044600213320CDE900104FF48070CDE943
:103020000201000104906946204600F053FA41F283
:1030300088323321204600F0D5F805B010BD10B518
:1030400085B004460D20CDE900104FF48070029049
:10305000002003904FF4805004906946204600F011
:1030600039FA41F288320D21204600F0BBF805B054
:1030700010BD30B585B00C46054600210320CDE9D2
:1030800000104FF48070CDE9020100010490694600
:10309000284600F01FFA22460321284600F082F954
:1030A00005B030BD10B585B0044600210D20CDE936
:1030B00000104FF48070CDE90201000104906946D0
:1030C000204600F007FA41F288320D21204600F038
:1030D00089F805B010BD000010B585B00446002089
:1030E0000C21CDE900014FF48071CDE902100801F7
:1030F0000490E06840F08000E060E06820F040006C
:10310000E0606946204600F0E5F9054A0C212046BA
:1031100000F068F8E16821F08001E16005B010BDC1
:1031200000E1F50510B585B0044600210B20CDE97E
:1031300000104FF48070CDE902010001049069464F
:10314000204600F0C7F941F288320B21204600F0FA
:1031500049F805B010BD10B585B004461920CDE979
:1031600000104FF480700290002003904FF48050C4
:1031700004906946204600F0ADF941F288321921E9
:10318000204600F02FF805B010BD10B585B00446FC
:103190001820CDE900104FF48070029000200390B9
:1031A0004FF4805004906946204600F093F941F2B4
:1031B00088321821204600F015F805B010BD0A68C5
:1031C00042624A688262D1E902231A43D1E904319A
:1031D0000B43C16A1A4321F0FF011143C162002071
:1031E0007047000030B5454B4FF4FA541B68B3FBF1
:1031F000F4F3434C53435B1E02D24FF0004030BD0A
:10320000426B2242F7D09204F5D4426B520703D5A9
:1032100004218163084630BD426BD20702D00121F0
:10322000816306E0364A803282630269D2B28A4202
:1032300001D0012030BD002100F02AF931490842B7
:1032400001D1002030BD002802DA4FF0007030BDFF
:10325000410001D5402030BD810001D5802030BD26
:10326000C10002D54FF4807030BD010102D54FF48A
:10327000007030BD410102D54FF4806030BDC10106
:1032800002D54FF4006030BD010202D54FF48050EA
:1032900030BD410202D54FF4005030BD810202D54D
:1032A0004FF4804030BDC10202D54FF4004030BD24
:1032B000410302D54FF4003030BD810302D54FF4F5
:1032C000802030BDC10302D54FF4002030BD010481
:1032D00002D54FF4801030BD410402D54FF40010E8
:1032E00030BD810402D54FF4800030BD000702D507
:1032F0004FF4000030BD4FF4803030BD140000208A
:103300004500200008E0FFFD12494FF4FA52096819
:10331000B1FBF2F141F288325143491E02D24FF023
:1033200000407047426B12F0450FF6D09204F4D47F
:10333000416B490703D50421816308467047416BFF
:10334000C90703D0012181630846704702498163A0
:103350000020704714000020C50020000F494FF4E2
:10336000FA520968B1FBF2F141F288325143491E29
:1033700002D24FF000407047426B12F0450FF6D07A
:103380009204F4D4416B490703D5042181630846B4
:10339000704703498163002070470000140000203B
:1033A000C500200030B5204B4FF4FA541B68B3FB26
:1033B000F4F341F2883463435B1E02D24FF00040C5
:1033C00030BD446B14F0450FF6D0A404F4D4436B25
:1033D0005B0703D504218163084630BD436BDB07DF
:1033E00002D00121816303E00369DBB28B4201D08B
:1033F000012030BD0D498163002100F049F810F42F
:10340000604F04D0410406D54FF4005030BD000C8D
:103410001080002030BD000402D54FF4805030BD34
:103420004FF4803030BD000014000020C5002000A3
:1034300014494FF4FA520968B1FBF2F141F28832B3
:103440005143491E02D24FF000407047426B12F0C8
:10345000450FF6D09204F4D4416B490703D50421FB
:10346000816308467047416BC90703D0012181631E
:1034700008467047416B490601D540218163002011
:103480007047000014000020006800F0030070473F
:10349000084440697047000030B51143DDE9034539
:1034A0002343194342682943024B1A400A434260AE
:1034B000002030BD002CC0FF10B5016841F00301B1
:1034C00001600220FDF70EF8002010BDD0F880004A
:1034D000704700000A688260D1E901231A43D1E9EC
:1034E00003310B43C1681A43024B19401143C160B9
:1034F00000207047C0E0FEFF0968C0F8801000207F
:103500007047000010B5064C01202070FCF700FF4A
:1035100018B9207820F001002070207810BD00003C
:10352000000000202DE9F04F87B00D460446FDF75E
:10353000E5F84FF0000B5E460690374608212068FC
:10354000FFF773FC002831D1B4F84800010420686B
:10355000FFF73AFC002829D1401E4FF00808CDE9BA
:10356000000830204FF00209CDE902090120CDE921
:10357000046069462068FFF722FE2068FFF746FDD9
:10358000002813D140F22A5A2068416B11EA0A0F31
:1035900006D1416B090315D4BBF1000F09D011E02E
:1035A000416B090717D5C0F83880082007B000F034
:1035B0002BB8FFF78BFF06462068FFF787FF07460B
:1035C0004FF0010BFDF79AF80699401A401CDBD129
:1035D0004FF00040EAE7416B890703D5C0F8389007
:1035E0000220E3E7416B890603D520218163084669
:1035F000DCE70449816338BA286030BA686000208B
:10360000D4E700003A0F001830BCBDE8C08F10B5F9
:103610008CB004460120ADF82C002068FFF734FF81
:10362000002853D0E06B032841D02068FFF7C0FC8E
:10363000002849D100212068FFF72AFF20670421D4
:103640002068FFF725FF606708212068FFF720FF4B
:10365000A0670C212068FFF71BFFE067E06B0328E1
:1036600025D00BA92068FFF704FD00282CD1E06BC2
:1036700003281CD0BDF82C00A06401042068FFF7CB
:10368000AEFC002820D100212068FFF701FF206652
:1036900004212068FFF7FCFE606608212068FFF720
:1036A000F7FEA0660C212068FFF7F2FEE066042119
:1036B0002068FFF7EDFE000D606469462046FEF7C6
:1036C0002BFA30B14FF080500CB010BD4FF080603D
:1036D000FAE7B4F84800002302042068FFF74EFC24
:1036E000F2E700002DE9F84F002604463546B046C3
:1036F0000096FDF703F881462068FFF7C9FB002814
:103700006BD12068FFF7EEFB4FF0010A4FF6FF7711
:1037100048B126642068FFF7BBFB00285DD1206C10
:10372000012802D01DE0C4F840A000212068FFF766
:103730004BFBE8BB15E000212068FFF745FB0028A4
:103740004BD159462068FFF759FB88BB0021206800
:10375000FFF79EFE05464FEAD0780098401C009087
:1037600002E0DFF8D0B00098B84202D2B8F1000F02
:10377000E1D000984FF08078B8424DD2680056D51D
:10378000C4F83CA0A069012852D1E80150D54FF4FB
:103790000070E0652068016841F008010160206860
:1037A000FFF7C0FC002818D14FF00045206800E06A
:1037B00011E0406B400106D4FCF7A0FFA0EB09002C
:1037C000401CF3D12AE021684FF0806088632068B4
:1037D000406BC00203D44FF0805000F02DB8D4F8F5
:1037E000A010012088472068016841F004010160B1
:1037F00006E000BFFCF782FFA0EB0900401C0DD0E3
:103800002068406B8001F5D521684FF00070886317
:103810002068416BC90203D54046DEE72846DCE755
:103820001321016021684FF0FF30886300E0E663F8
:103830000020D2E7000010C118BCBDE8E08F0000F6
:103840002DE9F04186B00D460446FCF757FF0746C8
:1038500000212068FFF71CFE800104D54FF40060B2
:1038600006B0BDE8F08140212068FFF7DEFAD8B944
:10387000B4F8480001042068FFF7A6FAA0B94FF099
:10388000FF300090402001906020029002200390C1
:10389000002004900120059069462068FFF78FFC06
:1038A0002068FFF7FFFB98B1A16BA163D8E7406BDD
:1038B000000407D500262068FFF708FE01C5761C26
:1038C000082EF8D3FCF71AFFC01B401C02D126E0DB
:1038D0004FF000482068416B11F4957FE7D0416BB1
:1038E000090701D50820BBE7416B890701D50220F4
:1038F000B6E7406B800609D52020B1E7FFF7E6FD6B
:1039000001C5FCF7FBFEC01B401C08D02068416BC2
:10391000C904F3D42168034888630020A0E7404627
:103920009EE700003A0F001870B5064C05460120CE
:103930002070FCF7F9FC18B92846FFF7E3FD20706A
:10394000207870BD0000002010B512488AB01446DF
:103950000078C00702D003200AB010BDC1B1012910
:1039600005D0022908D003290CD00420F4E76846CA
:10397000FCF7C8FC06980AE06846FCF7C3FC079809
:10398000208005E06846FCF7BDFC0798400A2060EF
:103990000020E1E70000002070B51D4616460846ED
:1039A0000124A31E2A463146FCF7E4FC28B900BFD7
:1039B000FCF7AEFC0028FBD10024204670BDFFF7C9
:1039C000A1BD000070B51D46164608460124A31E81
:1039D0002A463146FCF7E0FC28B900BFFCF798FC0A
:1039E0000028FBD10024204670BD7047FCF78CBE38
:1039F00010B5BCB0442125A8FCF739FC142136A829
:103A0000FCF735FC94216846FCF731FC4FF400705C
:103A1000FCF70AFF08B172B6FEE70220C101289147
:103A20004021259029912F9030901921CDE9310125
:103A30000821CDE93310359025A8FDF7DDFC08B14C
:103A400072B6FEE701240F20CDE936040020A10262
:103A5000CDE9380101463A9036A8FDF795FB08B14B
:103A600072B6FEE706480F94009040111E9068461B
:103A7000FDF77AF9002801D072B6FEE73CB010BD20
:103A8000010008000B48016841F4700101600A4818
:103A9000016841F001010160002181600268074B6B
:103AA0001A4002608214C260026822F4802202601E
:103AB0008161704788ED00E000100240FFFFF6EAE8
:103AC00030B5416EB9B1026891689268C1F3426144
:103AD0000B4B520F9C5CE50003F10804A25CB5FBA4
:103AE000F2F2A0F86A205A5C615CD200B2FBF1F1FC
:103AF000A0F8681030BD0121A0F86A10F8E70000B6
:103B0000B040000890F82810C90706D001684A683C
:103B1000C36A22F400321A434A6090F828108907D9
:103B200006D501684A68036B22F480321A434A6062
:103B300090F82810490706D501684A68436B22F4BB
:103B400080221A434A6090F82810090706D50168B8
:103B50004A68836B22F400421A434A6090F82810A6
:103B6000C90606D501688A68C36B22F480521A43DD
:103B70008A6090F82810890606D501688A68036C67
:103B800022F400521A438A6090F82810490611D591
:103B900001684A68436C22F480121A434A60416CFF
:103BA000B1F5801F06D101684A68836C22F4C00217
:103BB0001A434A6090F82810090606D501684A6839
:103BC000C06C22F4002202434A607047F8B5002618
:103BD0000446C0F88C60FCF791FD0546206800683B
:103BE0006FF07E47000708D52B4600224FF40011E6
:103BF0002046009700F0C0F960B9206800684007CF
:103C00000AD52B4600224FF480012046009700F091
:103C1000B3F908B10320F8BD2020C4F88400C4F82B
:103C2000880044F86C6F00202675F8BD806A00217A
:103C3000A0F85E10A0F85610D0F8A01008470000B9
:103C400001680A6822F490720A6001688A68094B68
:103C50001A408A60C16E012904D101680A6822F005
:103C600010020A602021C0F888100021C166016797
:103C700070470000FEFFFFEF0C4940F8901F0C4911
:103C800041600C4981600C49C1600C4901610C49DB
:103C900041610C4981610C49C1610C4901620C49C7
:103CA00041620C4981620C49C16270474F2800088B
:103CB0004D2800084B28000849280008D724000890
:103CC000D1240008D5240008D3240008CF240008FC
:103CD00033240008CD240008312400082DE9F041E8
:103CE0000446016880682269E3691043626900251F
:103CF0001A431043DFF850C20A68944B1A4002433B
:103D00000A6020684168E26821F440511143416033
:103D10002168A069614501D0226A10438A688C4BF2
:103D20001A4002438A602068C16A626A21F00F016A
:103D30001143C1628749236887488B420DD1D0F86F
:103D4000880010F0030006D0012867D0022854D064
:103D5000032851D164E001204FE080498B420BD110
:103D6000D0F8880010F00C0047D0042845D008286F
:103D700052D00C2840D153E079498B420BD1D0F876
:103D8000880010F0300038D0102847D0202843D0C9
:103D9000302831D144E073498B420BD1D0F88800F0
:103DA00010F0C00029D0402838D0802834D0C02856
:103DB00022D135E06C498B420ED1D0F8880010F446
:103DC00040701AD0B0F5807F28D0B0F5007F23D0A6
:103DD000B0F5407F10D123E063450DD1D0F88800C5
:103DE00010F4406009D0B0F5806F17D0B0F5006FC7
:103DF00012D0B0F5406F13D010205C4A5C4F002603
:103E00004FF40041634539D160B102280DD0042838
:103E10000DD0082831D10EE00220EEE70420ECE7B7
:103E20000820EAE7FDF772FA03E0114603E0FDF728
:103E300091FA01007DD0606A37F810206768B1FB05
:103E4000F2F007EB470383426CD8B0EB073F69D829
:103E5000002308461946FCF7CFF9090241EA106130
:103E600002027808101871413A460023FCF7C4F9A1
:103E7000404AA0F54071914259D953E0E3694FF6A9
:103E8000EF788B422DD109284CD2DFE800F00508ED
:103E90000D4B274B4B4B0E00FDF738FA01E0FDF7B9
:103EA00047FA010001D144E01146606A37F810007A
:103EB000B1FBF0F04100606801EB5001B1FBF0F0A4
:103EC00080B2A0F1100141452CD84FF6F0710140AD
:103ED000C0F3420001432068C1602AE0FDF73AFACE
:103EE000DFE709281ED2DFE800F005080D1D1F1DC1
:103EF0001D1D0E00FDF70AFA01E0FDF719FA010099
:103F000001D116E01146606A37F81000B1FBF0F1FC
:103F1000606801EB5001B1FBF0F080B2A0F110013C
:103F2000414504D9012504E0FDF714FAE7E72168CB
:103F3000C8600120A4F86A0024F8680F2846A6602B
:103F4000E660BDE8F081000000800040F369FFCF2B
:103F5000FFF4FF110038014000100240004400400F
:103F600000480040004C0040005000400024F40095
:103F700098400008FFFC0F002DE9F0479A461746CD
:103F80000E4604464FF000094FF02008089D39E026
:103F9000681C37D0FCF7B2FBA0EB0A00A84222D87D
:103FA0000DB32068016849072CD5C069C0430005DE
:103FB00028D421684FF4006008622068016821F469
:103FC000D07101602068816821F001018160C4F82E
:103FD0008480C4F88880C4F88C8000BF84F8809006
:103FE0000320BDE8F0872068016821F4D0710160EA
:103FF0002068816821F001018160C4F88480C4F8E0
:104000008880EBE72068C06936EA000004D0002011
:10401000B842BDD00020E4E70120F9E70148FEF7EF
:104020005BBA0000C4000020FEE70907090E002863
:1040300004DB00F1E02080F80014704700F00F006E
:1040400000F1E02080F8141D704702E008C8121F3C
:1040500008C1002AFAD170477047002001E001C171
:10406000121F002AFBD17047FCF756FBFFF7C0FC7C
:10407000FEF7FEFBFEF73AFCFEF7ECFBFEF74AFC10
:10408000FEE7000029390008BF3900089939000807
:10409000C539000849390008010002000400060083
:1040A00008000A000C001000200040008000000101
:1040B00001010103070100000804020408010101D5
:1040C00000000000000000000102030406070809C8
:1040D000A0860100400D0300801A060000350C0088
:1040E00040420F0080841E0000093D0000127A004B
:1040F0000024F40000366E010048E801006CDC0288
:104100000000000001020304284100080000002014
:10411000180000004A400008404100081800002034
:10412000800500005A400008010000000000000067
:1041300001000000100000000000000000093D0028
:04000005080001BD31
:00000001FF
